:1000000009C00EC00DC00CC00BC00AC009C008C09A
:1000100008C006C011241FBECFE9CDBF31D04DC0EE
:10002000EFCF1F920F920FB60F9211240F900FBEB9
:100030000F901F90189591B5986191BD81BD81B5C4
:10004000806481BD85B7877E806185BFF89485B760
:10005000806285BF85B7836085BF8E7F85BF7894BA
:10006000889585B78F7D85BF089587E886B981E437
:1000700087B9369A3699FECF379884B195B10895ED
:10008000B89AB99A84B38C6384BBC7E7D1E081E2A4
:10009000D2DF2196C33C21E0D207C9F7C19A81E0A3
:1000A000CADFE3DFC198C0E0D0E0893E92407CF334
:0E00B000C09A80E2C0DFC098EACFF894FFCF7C
:00000001FF
