:1000000009C00EC00DC00CC00BC00AC009C008C09A
:1000100008C006C011241FBECFE9CDBF27D044C001
:10002000EFCF1895379881B5866081BD81B5806422
:1000300081BD85B7877E806185BFF89485B7806272
:1000400085BF80B7836080BF8E7F80BF789488959E
:1000500085B78F7D85BF089587E886B981E487B924
:10006000369A3699FECF84B195B10895B89AB99A67
:1000700084B38C6384BBC8EBDBE0D4DF2196C13151
:100080002EE0D207D1F7C19ACDDFCCDFE5DFC198F2
:10009000D0E0C0E0893E924084F3C09AC3DFC2DF63
:0C00A000C1DFC0DFC098E9CFF894FFCFAB
:00000001FF
