:1000000009C00EC00DC00CC00BC00AC009C008C09A
:1000100008C006C011241FBECFE9CDBF27D03FC006
:10002000EFCF1895379881B5866081BD81B5806422
:1000300081BD85B7877E806185BFF89485B7806272
:1000400085BF80B7836080BF8E7F80BF789488959E
:1000500085B78F7D85BF089587E886B981E487B924
:10006000369A3699FECF84B195B10895B89AB99A67
:1000700084B38C6384BBC9E5D2E0D4DF2197E9F770
:10008000C19AD0DFCFDFE8DFC198893E92409CF370
:10009000C09AC8DFC7DFC6DFC5DFC098ECCFF894D1
:0200A000FFCF90
:00000001FF
