:1000000009C00EC00DC00CC00BC00AC009C008C09A
:1000100008C006C011241FBECFE9CDBF25D038C00F
:10002000EFCF1F920F920FB60F9211240F900FBEB9
:100030000F901F90189581B5816281BD81B5806454
:1000400081BD85B7877E806185BFF89485B7806262
:1000500085BF85B7836085BF8E7F85BF789488957F
:1000600085B78F7D85BF0895BB9AC398C09AC19A02
:10007000C29AC49AC0E0D0E0DEDFB29BFBCF2196EB
:10008000C23C81E0D807C4F3C39AD5DFC398F2CF4E
:04009000F894FFCF12
:00000001FF
