:1000000009C00EC00DC00CC00BC00AC009C008C09A
:1000100008C006C011241FBECFE9CDBF28D044C000
:10002000EFCF189591B5986191BD81BD81B5806480
:1000300081BD85B7877E806185BFF89485B7806272
:1000400085BF80B7836080BF8E7F80BF789488959E
:1000500085B78F7D85BF089587E886B981E487B924
:10006000369A3699FECF379884B195B10895B89AEB
:10007000B99A84B38C6384BBC1EED0E081E2D2DF55
:100080002196C33C21E0D207C9F7C19A81E0CADFBB
:10009000E3DFC198D0E0C0E0833493407CF3C09AA2
:0C00A00080E2C0DFC098EACFF894FFCFE8
:00000001FF
